:02054000C012E7
:03000000020006F5
:03005F0002000399
:0300030002022CCA
:20006200438E0C90000022AF83E5829016C0F0EFA3F03099FD9016C0E0FEA3E0FF8E99C209
:20008200998E828F832210980280FBAE997F008E828F83229016C2E4F09016CDF09016CE3F
:2000A200F0A3F09016C2E0FFBF0D02805F120088AE82AF839016C2EEF0BE30004031EE2414
:2000C200C6402C8E057F008D828F83C006120069D0069016CDE0FF24C3F582E43416F5834C
:2000E2008E05ED24D0FDF09016CDEF04F080B4BE08B19000081200699000201200699000CE
:20010200081200699016CDE014F080977442C0E07405C0E01203FB158115819016CDE0FFEF
:200122007D007E008F037C00C3ED9BEE64808CF063F08095F050599016CEE0FBA3E0FC90BC
:2001420016D0EBF0ECA3F090000AC007C006C005120504AB82AC83D005D006D0079016CE04
:20016200EBF0ECA3F0ED24C3F582EE3416F583E0FC7B009016CEE0F9A3E0FAEC29F9EB3AD4
:20018200FA9016CEE9F0EAA3F00DBD00970E80949016CEE0FEA3E08E82F58322758F1F4331
:2001A200A880438920439850438840758DFDD2992275D90275E90075F90075EBBF75FBBFFD
:2001C20075D84075DB422275D90275E90075F90075EBFF75FBFF75D84075DB00229016D479
:2001E200E070167445C0E07405C0E01203FB158115819016D47401F0227451C0E07405C04A
:20020200E01203FB158115819016D4E4F0229016D4E0FFBF011075EE0075FEFF43D9407581
:20022200D84043DE4C2275D9002212019E745EC0E07405C0E01203FB1581158174B2C0E067
:200242007405C0E01203FB1581158174C3C0E07405C0E01203FB1581158174D5C0E07405B9
:20026200C0E01203FB158115817426C0E07406C0E01203FB158115817477C0E07406C0E06B
:200282001203FB158115817490C0E07406C0E01203FB1581158174AFC0E07406C0E0120334
:2002A200FB1581158174CEC0E07406C0E01203FB1581158174E5C0E07406C0E01203FB15A5
:2002C2008115817438C0E07407C0E01203FB15811581745FC0E07407C0E01203FB15811519
:2002E20081120096AE82AF839016D2EEF0EFA3F08E828F831200699016D2E0FEA3E0FFBE66
:200302000117BF0014749BC0E07407C0E01203FB158115811201B380B9BE0217BF001474CD
:20032200A6C0E07407C0E01203FB158115811201C9809FBE0318BF001574B2C0E07407C075
:20034200E01203FB158115817597000202D4BE0418BF001574C8C0E07407C0E01203FB15D1
:200362008115817597FF0202D4BE0521BF001E74DEC0E07407C0E01203FB1581158143A88C
:200382000143B80153D97F4387010202D4BE0618BF001574ECC0E07407C0E01203FB15819F
:2003A20015814387020202D4BE0724BF00217400C0E07408C0E01203FB1581158175D9027C
:2003C20075EA7F75FA7F75D84043DA4C0202D4BE081BBF00187415C0E07408C0E01203FB74
:1903E200158115811201DF1202100202D4BE0906BF000302022F0202D44E
:200542000A0D007761746368646F675F6F6E007761746368646F675F6F6666000A0D2A2A9F
:200562002A2A2A2A2A2A2A2A2A2A2A2A2A2A2A2A2A2A2A2A2A2A2A2A2A2A2A2A2A2A2A2A39
:200582002A2A2A2A4D454E552A2A2A2A2A2A2A2A2A2A2A2A2A2A2A2A2A2A2A2A2A2A2A2A8C
:2005A2002A2A2A2A2A2A2A2A2A2A2A2A2A2A0D000A0D20312E2052756E2050574D200A0DAA
:2005C200000A0D20322E2053746F702050574D200A0D000A0D20332E205365742046434C98
:2005E2004B2050455249504820617420746865206D696E696D756D206672657175656E63DB
:200602007920737570706F727465642062792074686520434B524C2072656769737465722C
:20062200200A0D000A0D20342E205365742046434C4B20504552495048206174207468651E
:20064200206D6178696D756D206672657175656E637920737570706F727465642062792067
:2006620074686520434B524C207265676973746572200A0D000A0D20352E20456E74657277
:200682002049646C65206D6F6465200A0D000A0D20362E20456E74657220506F77657220B8
:2006A200446F776E206D6F6465200A0D000A0D20372E20456E746572204869676820737047
:2006C200656564206D6F6465200A0D000A0D20382E205761746368646F67206D6F6465201B
:2006E2000A0D000D2A2A2A2A2A2A2A2A2A2A2A2A2A2A2A2A2A2A2A2A2A2A2A2A2A2A2A2A3C
:200702002A2A2A2A2A2A2A2A2A2A2A2A2A2A2A2A2A2A2A2A2A2A2A2A2A2A2A2A2A2A2A2A97
:200722002A2A2A2A2A2A2A2A2A2A2A2A2A2A2A2A2A2A2A2A0D000A0D204372656174656473
:200742002062792047617572696563682049736861616E2050696C6C612E0A0D000A0D2052
:20076200456E7465722061206E756D6265722066726F6D206D656E75206F722070726573CB
:2007820073203920746F20736565206D656E7520616761696E200A0D000A0D50574D204F85
:2007A2004E0A0D000A0D50574D204F46460A0D000A0D4D696E696D756D204672657175653A
:2007C2006E63790A0D000A0D4D6178696D756D204672657175656E63790A0D000A0D496414
:2007E2006C65206D6F64650A0D000A0D506F77657220646F776E206D6F64650A0D000A0D5B
:2008020020486967682D5370656564206D6F64650A0D000A0D2057617463682D646F672087
:0A0822006D6F64650A0D0000000010
:06003500E478FFF6D8FD9F
:200013007903E94400601B7A0190082978D275A016E493F2A308B8000205A0D9F4DAF27577
:02003300A0FF2C
:2003FB00C008858108E50824FDF8868318868218E493A324DB600C242560051204E980F023
:20041B00020501D2D5E493A3C083C082B4731486F0188683188682181205246054A31204C1
:20043B00E980F5B4630818E6181204E98043B46417E630E74618E6F42401F608E6F43400B7
:20045B00F6742D1204E98033B4782D868318868218E41204DAE5831204D9E5831204DAE536
:20047B00821204D9E5821204DA30D50574301204E9D082D08302040BB475F6E6FA18E6F940
:20049B00187C107D271204C4FF7CE87D031204C4C4F5837C647D001204C44283E975F00AD2
:2004BB0084C445F0F582EF80A97B000BC3E99CF9EA9DFA50F61BE92CF9EA3DFAEB22C45418
:2004DB000F700320D51FC2D52490D43440D4C083C082C0F0F582E8C0E0120069D0E0F8D0DD
:0904FB00F0D082D08322D0082247
:20050400AA83AB828BF09016D0E0A4F8A9F08AF0E0A429F98BF0A3E0A429F58388822222C6
:20003B007800E84400600A790075A004E4F309D8FC78D2E84412600C7913900400E4F0A3C6
:04005B00D8FCD9FAFA
:0D000600758108120062E5826003020003AC
:1C05240020F71430F6148883A88220F507E6A88375830022E280F7E49322E022E6
:00000001FF
